:020000040001F9
:100000003DB8F3960000000000020000E0DB0100B4
:1000100000000000000000000000000000000000E0
:1000200000000000000000000000000000000000D0
:1000300000000000000000000000000000000000C0
:1000400000000000000000000000000000000000B0
:1000500000000000000000000000000000000000A0
:100060000000000000000000000000000000000090
:100070000000000000000000000000000000000080
:100080000000000000000000000000000000000070
:100090000000000000000000000000000000000060
:1000A0000000000000000000000000000000000050
:1000B0000000000000000000000000000000000040
:1000C0000000000000000000000000000000000030
:1000D0000000000000000000000000000000000020
:1000E0000000000000000000000000000000000010
:1000F0000000000000000000000000000000000000
:1001000000000000000000000000000000000000EF
:1001100000000000000000000000000000000000DF
:1001200000000000000000000000000000000000CF
:1001300000000000000000000000000000000000BF
:1001400000000000000000000000000000000000AF
:10015000000000000000000000000000000000009F
:10016000000000000000000000000000000000008F
:10017000000000000000000000000000000000007F
:10018000000000000000000000000000000000006F
:10019000000000000000000000000000000000005F
:1001A000000000000000000000000000000000004F
:1001B000000000000000000000000000000000003F
:1001C000000000000000000000000000000000002F
:1001D000000000000000000000000000000000001F
:1001E000000000000000000000000000000000000F
:1001F00000000000000000000000000000000000FF
:10020000A0940020D9530100832102000954010069
:1002100009540100095401000954010000000000C4
:100220000000000000000000000000005551010027
:10023000095401000000000001510100BB20020030
:1002400099530100995301009953010099530100FA
:1002500099530100995301009953010099530100EA
:1002600099530100995301009953010099530100DA
:1002700099530100995301009953010099530100CA
:1002800099530100995301009953010099530100BA
:1002900099530100995301009953010099530100AA
:1002A000995301009953010099530100995301009A
:1002B000995301009953010099530100995301008A
:1002C000995301009953010099530100995301007A
:1002D000995301009953010099530100995301006A
:1002E000995301009953010099530100995301005A
:1002F000995301009953010099530100995301004A
:1003000001F0FF01102A2BDB10F0070F08D010F8C6
:10031000013B013A8B422DD010F0070F42B3F6D1CA
:10032000F0B441EA012141EA014122F007047FF0E3
:1003300000070023F0E80256083C85EA010586EA3A
:10034000010685FA47F5A3FA87F586FA47F6A5FA76
:1003500087F68EB9EED1F0BC01F0FF0102F0070282
:1003600032B110F8013B013A83EA010313B1F8D12D
:100370000020704701387047002D06BF354603380E
:10038000073815F0010F07D1013015F4807F02BF47
:10039000013015F4C03F0130F0BC0138704700BF98
:1003A00053B94AB9002908BF00281CBF4FF0FF31DC
:1003B0004FF0FF3000F082B9ADF1080C6DE904CECA
:1003C00000F01AF8DDF804E0DDE9022304B070471C
:1003D000430803F05533C01A830803F0333300F0A9
:1003E0003330184400EB101000F00F3000EB002009
:1003F00000EB0040000E70472DE9F047089D0E46C7
:1004000004468C46002B40F081808A42174645D92D
:10041000B2FA82F24AB1C2F1200106FA02F320FADE
:1004200001F1974041EA030C94404FEA174E230C28
:10043000BCFBFEF6B9B20EFB16CC43EA0C4306FB3E
:1004400001F0984209D9FB1806F1FF3C80F01581B4
:10045000984240F21281023E3B441B1AA4B2B3FB05
:10046000FEF00EFB103344EA034400FB01F1A1420D
:1004700009D93C1900F1FF3380F00181A14240F21B
:10048000FE8002383C44641A40EA064000211DB157
:10049000D4400023C5E90043BDE8F08702B9FFDE80
:1004A000B2FA82F2002A4FD1CB1B4FEA174E1FFA45
:1004B00087F80121B3FBFEFC260C0EFB1C3346EA39
:1004C000034608FB0CF3B34207D9BE190CF1FF3009
:1004D00002D2B34200F2EB808446F61AA3B2B6FB16
:1004E000FEF00EFB106643EA064408FB00F8A04548
:1004F00007D93C1900F1FF3302D2A04500F2D280A7
:100500001846A4EB080440EA0C40C0E78B4208D927
:10051000002D00F0AF800021C5E900060846BDE8C7
:10052000F087B3FA83F1002949D1B34202D3824262
:1005300000F2BB80841A66EB030301209C46002D69
:10054000AAD0C5E9004CA7E7C2F120039740D840E4
:100550009140DE404FEA174E08434FEA104CB6FB7D
:10056000FEF11FFA87F80EFB11664CEA064601FB06
:1005700008F3B34204FA02F409D9BE1901F1FF3CB1
:1005800080F08E80B34240F28B8002393E44F31AF1
:1005900086B2B3FBFEF00EFB103346EA034600FBC7
:1005A00008F3B34207D9BE1900F1FF3C74D2B3423D
:1005B00072D902383E44F31A40EA01417AE7C1F1A8
:1005C000200703FA01F422FA07F31C4320FA07F983
:1005D00006FA01F34FEA144CFE4049EA03094FEAD8
:1005E0001943B6FBFCFE1FFA84F80CFB1E6643EAB7
:1005F00006460EFB08FAB24502FA01F200FA01F3D0
:1006000008D9A6190EF1FF3048D2B24546D9AEF14D
:10061000020E2644A6EB0A061FFA89F9B6FBFCF087
:100620000CFB106649EA064600FB08F8B04507D9FE
:10063000A61900F1FF3C2DD2B0452BD90238264433
:1006400040EA0E40A6EB0806A0FB02894E45C446D0
:10065000CE4618D315D075B3B3EB0C0266EB0E067D
:1006600006FA07F722FA01F3CE401F43C5E90076E8
:10067000002111E7294628460EE76646EDE61846B2
:1006800001E74345E7D2B8EB020C69EB04040138FB
:10069000A646E0E76046D3E760468CE78646B9E7C2
:1006A000614674E702383C442BE7084647E7ACF163
:1006B000020C3E4411E72946EEE600BF704700BF3A
:1006C00081F0004102E000BF83F0004330B54FEA03
:1006D00041044FEA430594EA050F08BF90EA020F70
:1006E0001FBF54EA000C55EA020C7FEA645C7FEA03
:1006F000655C00F0E2804FEA5454D4EB5555B8BF26
:100700006D420CDD2C4480EA020281EA030382EA96
:10071000000083EA010180EA020281EA0303362D28
:1007200088BF30BD11F0004F4FEA01314FF4801CFB
:100730004CEA113102D0404261EB410113F0004F0D
:100740004FEA03334CEA133302D0524263EB4303C4
:1007500094EA050F00F0A780A4F10104D5F1200E62
:100760000DDB02FA0EFC22FA05F2801841F10001BD
:1007700003FA0EF2801843FA05F359410EE0A5F191
:1007800020050EF1200E012A03FA0EFC28BF4CF0C2
:10079000020C43FA05F3C01851EBE37101F0004578
:1007A00007D54FF0000EDCF1000C7EEB00006EEB85
:1007B0000101B1F5801F1BD3B1F5001F0CD349080F
:1007C0005FEA30004FEA3C0C04F101044FEA445266
:1007D00012F5800F80F09A80BCF1004F08BF5FEAED
:1007E000500C50F1000041EB045141EA050130BDCD
:1007F0005FEA4C0C404141EB0101013C28BFB1F5DF
:10080000801FE9D291F0000F04BF01460020B1FA29
:1008100081F308BF2033A3F10B03B3F120020CDAFC
:100820000C3208DD02F1140CC2F10C0201FA0CF0DA
:1008300021FA02F10CE002F11402D8BFC2F1200C3F
:1008400001FA02F120FA0CFCDCBF41EA0C019040F5
:10085000E41AA2BF01EB0451294330BD6FEA04043E
:100860001F3C1CDA0C340EDC04F11404C4F1200229
:1008700020FA04F001FA02F340EA030021FA04F33B
:1008800045EA030130BDC4F10C04C4F1200220FA92
:1008900002F001FA04F340EA0300294630BD21FAD0
:1008A00004F0294630BD94F0000F83F4801306BF96
:1008B00081F480110134013D4EE77FEA645C18BF8A
:1008C0007FEA655C29D094EA050F08BF90EA020F21
:1008D00005D054EA000C04BF1946104630BD91EA19
:1008E000030F1EBF0021002030BD5FEA545C05D11C
:1008F0004000494128BF41F0004130BD14F580045B
:100900003CBF01F5801130BD01F0004545F0FE41CE
:1009100041F470014FF0000030BD7FEA645C1ABF03
:10092000194610467FEA655C1CBF0B46024650EA3A
:10093000013406BF52EA033591EA030F41F4002166
:1009400030BD00BF90F0000F04BF0021704730B5EC
:100950004FF4806404F132044FF000054FF00001C1
:1009600050E700BF90F0000F04BF0021704730B582
:100970004FF4806404F1320410F0004548BF404257
:100980004FF000013EE700BF42004FEAE2014FEAAC
:1009900031014FEA02701FBF12F07F4393F07F4F87
:1009A00081F06051704732F07F4208BF704793F08A
:1009B0007F4F04BF41F40021704730B54FF460749D
:1009C00001F0004521F000411CE700BF50EA0102A0
:1009D00008BF704730B54FF000050AE050EA010249
:1009E00008BF704730B511F0004502D5404261EBB9
:1009F00041014FF4806404F132045FEA915C3FF4FA
:100A0000D8AE4FF003025FEADC0C18BF03325FEA96
:100A1000DC0C18BF033202EBDC02C2F1200300FA47
:100A200003FC20FA02F001FA03FE40EA0E0021FA6C
:100A300002F11444BDE600BF70B54FF0FF0C4CF45A
:100A4000E06C1CEA11541DBF1CEA135594EA0C0F0C
:100A500095EA0C0F00F0DEF82C4481EA030621EA47
:100A60004C5123EA4C5350EA013518BF52EA033582
:100A700041F4801143F4801338D0A0FB02CE4FF034
:100A80000005E1FB02E506F00042E0FB03E54FF064
:100A90000006E1FB03569CF0000F18BF4EF0010E5C
:100AA000A4F1FF04B6F5007F64F5407404D25FEA58
:100AB0004E0E6D4146EB060642EAC62141EA55510B
:100AC0004FEAC52040EA5E504FEACE2EB4F1FD0C4D
:100AD00088BFBCF5E06F1ED8BEF1004F08BF5FEACB
:100AE000500E50F1000041EB045170BD06F000467D
:100AF00046EA010140EA020081EA0301B4EB5C042A
:100B0000C2BFD4EB0C0541EA045170BD41F4801121
:100B10004FF0000E013C00F3AB8014F1360FDEBF46
:100B2000002001F0004170BDC4F10004203C35DA22
:100B30000C341BDC04F11404C4F1200500FA05F3A5
:100B400020FA04F001FA05F240EA020001F0004246
:100B500021F0004110EBD37021FA04F642EB0601BC
:100B60005EEA430E08BF20EAD37070BDC4F10C04E6
:100B7000C4F1200500FA04F320FA05F001FA04F2AA
:100B800040EA020001F0004110EBD37041F1000196
:100B90005EEA430E08BF20EAD37070BDC4F12005A1
:100BA00000FA05F24EEA020E20FA04F301FA05F209
:100BB00043EA020321FA04F001F0004121FA04F2B1
:100BC00020EA020000EBD3705EEA430E08BF20EA81
:100BD000D37070BD94F0000F0FD101F000464000BB
:100BE00041EB010111F4801F08BF013CF7D041EA3D
:100BF000060195F0000F18BF704703F00046520041
:100C000043EB030313F4801F08BF013DF7D043EA11
:100C10000603704794EA0C0F0CEA135518BF95EAC7
:100C20000C0F0CD050EA410618BF52EA4306D1D14E
:100C300081EA030101F000414FF0000070BD50EA6D
:100C4000410606BF1046194652EA430619D094EAF7
:100C50000C0F02D150EA013613D195EA0C0F05D1E1
:100C600052EA03361CBF104619460AD181EA030135
:100C700001F0004141F0FE4141F470014FF00000ED
:100C800070BD41F0FE4141F4780170BD70B54FF088
:100C9000FF0C4CF4E06C1CEA11541DBF1CEA135508
:100CA00094EA0C0F95EA0C0F00F0A7F8A4EB0504EA
:100CB00081EA030E52EA03354FEA013100F08880E1
:100CC0004FEA03334FF0805545EA131343EA1263AA
:100CD0004FEA022245EA111545EA10654FEA00265F
:100CE0000EF000419D4208BF964244F1FD0404F518
:100CF000407402D25B084FEA3202B61A65EB030574
:100D00005B084FEA32024FF480104FF4002CB6EB30
:100D1000020E75EB030E22BFB61A754640EA0C00B0
:100D20005B084FEA3202B6EB020E75EB030E22BFF0
:100D3000B61A754640EA5C005B084FEA3202B6EB31
:100D4000020E75EB030E22BFB61A754640EA9C00F0
:100D50005B084FEA3202B6EB020E75EB030E22BFC0
:100D6000B61A754640EADC0055EA060E18D04FEA7E
:100D7000051545EA16754FEA06164FEAC30343EA1E
:100D800052734FEAC2025FEA1C1CC0D111F4801FEB
:100D90000BD141EA00014FF000004FF0004CB6E7E4
:100DA00011F4801F04BF01430020B4F1FD0C88BF83
:100DB000BCF5E06F3FF6AFAEB5EB030C04BFB6EB8E
:100DC000020C5FEA500C50F1000041EB045170BD81
:100DD0000EF0004E4EEA113114EB5C04C2BFD4EBAE
:100DE0000C0541EA045170BD41F480114FF0000E32
:100DF000013C90E645EA060E8DE60CEA135594EAAE
:100E00000C0F08BF95EA0C0F3FF43BAF94EA0C0FB0
:100E10000AD150EA01347FF434AF95EA0C0F7FF425
:100E200025AF104619462CE795EA0C0F06D152EA79
:100E300003353FF4FDAE1046194622E750EA41065D
:100E400018BF52EA43067FF4C5AE50EA41047FF46E
:100E50000DAF52EA43057FF4EBAE12E74FF0FF3CD3
:100E600006E000BF4FF0010C02E000BF4FF0010CA4
:100E70004DF804CD4FEA410C7FEA6C5C4FEA430C1D
:100E800018BF7FEA6C5C1BD001B050EA410C0CBF6C
:100E900052EA430C91EA030F02BF90EA020F0020CE
:100EA000704710F1000F91EA030F58BF994208BF35
:100EB00090422CBFD8176FEAE37040F001007047F2
:100EC0004FEA410C7FEA6C5C02D150EA013C07D149
:100ED0004FEA430C7FEA6C5CD6D152EA033CD3D094
:100EE0005DF8040B704700BF8446104662468C468E
:100EF0001946634600E000BF01B5FFF7B7FF0028C1
:100F000048BF10F1000F01BD4DF808EDFFF7F4FFE9
:100F10000CBF012000205DF808FB00BF4DF808ED74
:100F2000FFF7EAFF34BF012000205DF808FB00BF97
:100F30004DF808EDFFF7E0FF94BF012000205DF8B9
:100F400008FB00BF4DF808EDFFF7CEFF94BF01206E
:100F500000205DF808FB00BF4DF808EDFFF7C4FF67
:100F600034BF012000205DF808FB00BF4FEA410CB0
:100F70007FEA6C5C02D150EA013C0AD14FEA430C93
:100F80007FEA6C5C02D152EA033C02D14FF00000D0
:100F900070474FF0010070474FEA410212F500120E
:100FA00015D211D56FF47873B3EB625212D94FEAB0
:100FB000C12343F0004343EA505311F0004F23FA9A
:100FC00002F018BF404270474FF00000704750EAEF
:100FD000013005D111F0004008BF6FF000407047AC
:100FE0004FF00000704700BF10F8012B11F8013BD3
:100FF000012A28BF9A42F7D0D01A7047034613F847
:10100000012B002AFBD1181A01387047000000009C
:1010100001232DE9F04180F82D304FF47A73A1FBC4
:101020000367044600F11401214811F0C7FB11F0D9
:101030007FFC204AA061002330463946FFF7B0F913
:101040001C49206201FB1060E0611B4811F07DFC2F
:10105000054620B1236A2BBBE369984222DD16487E
:1010600016F003FB236A002B08DD3DB90EA3D3E97C
:101070000023BDE8F041104805F0F6BCE1694FF4EB
:10108000004021EAE17140F2E7340025C0FB014550
:101090004FF47A72002320462946FFF781F9002396
:1010A0000246E6E7BDE8F08105C64D62000000009B
:1010B000D83600209BFFFF7F003700200000000093
:1010C0004B1C2DE9F041044645D04FF47A76A1FB44
:1010D00006670146244811F07BFB234811F06EFBA4
:1010E00011F026FC214A6060002330463946FFF7A4
:1010F00057F91E49E06001FB1060A0601C4811F028
:1011000024FC054620B1E3682BBBA368984222DD8E
:10111000174816F0AAFAE368002B08DD3DB910A3C2
:10112000D3E90023BDE8F041114805F09DBCA1685A
:101130004FF4004021EAE17140F2E7340025C0FBA2
:1011400001454FF47A72002320462946FFF728F91B
:1011500000230246E6E7BDE8F08100BFAFF3008060
:1011600005C64D6200000000E83600209BFFFF7FAF
:10117000BC380020000000002DE9F04F446A99B00F
:1011800016461F46CDE90467DDF8948005463CB954
:1011900010200EF05BFCC0E9014468620460C4608A
:1011A0006B6A196851B15A684A60012393408B6099
:1011B000284616F05EFE6B6A00221A603B1EB9BF1D
:1011C00023F0004305930023C8F80030DDF81490A5
:1011D000A74BBCBF0122C8F8002033EA090319D18C
:1011E000249A42F20F731360C9F31303334300F0E0
:1011F0006D85269B53B99F4B23E09F4B0393083388
:10120000269A1360039819B0BDE8F08F994B0393A9
:101210000333F5E7DDE90434CDE90C34DDE90C01F5
:1012200000220023FFF770FE804660B1249A01235C
:101230001360269B002B00F04685904B269A136086
:10124000013B0393DEE716AB019317AB00932846EF
:10125000DDE90C2317F045F8C9F30A548346002C46
:101260007ED00D9BCDF84C80C3F31303DDE90C0158
:1012700043F07F5141F44011A4F2FF34804B00222F
:10128000FFF722FA74A3D3E90023FFF7D5FB74A379
:10129000D3E90023FFF71AFA064620460F46FFF768
:1012A00061FB71A3D3E90023FFF7C6FB02460B469F
:1012B00030463946FFF70AFA06460F46FFF76CFE3E
:1012C00000228246002330463946FFF727FE48B108
:1012D0005046FFF747FB32463B46FFF715FE08B97D
:1012E0000AF1FF3ABAF1160F57D8664B03EBCA035F
:1012F000D3E90023DDE90C01FFF710FE00284ED0F2
:101300000AF1FF3A00230F93169B1C1B631E0993DF
:1013100045BFC4F101030693002300234CBF09938A
:101320000693BAF1000F3CDB099BCDF838A053447B
:10133000099300230A93229B092B00F2B580052B09
:10134000C4BF043B2293229BA3F10203CCBF002421
:101350000124032B00F2B480DFE803F02D987AA477
:10136000DDE916431C4404F23243202BC3BFC3F112
:10137000400304F2124009FA03F3C3F12003C6BF8D
:1013800026FA00F0184306FA03F0FFF7DBFA012310
:10139000A1F1F871013C139370E70123B3E70F90BB
:1013A000B2E7069BA3EB0A030693CAF100030A9374
:1013B00000230E93BFE700230B93239B002B00F326
:1013C00082804FF00109CDF820904B46CDF88C90EB
:1013D0006E6A00227260042202F114009842716861
:1013E00077D9284616F011FD6B6A30601B680393AD
:1013F000089B0E2B00F2EE80002C00F0EB80BAF17F
:10140000000F7ADD1F4A0AF00F0302EBC303D3E992
:1014100000341AF4807FCDE910344FEA2A145CD0EE
:10142000194BDDE90C01D3E90823FFF72FFCCDE9C7
:10143000040104F00F040327134E002C4FD1DDE903
:101440001023DDE90401FFF721FCCDE904016EE082
:101450000123B1E7AFF3008061436F63A787D23FF9
:10146000B3C8608B288AC63FFB799F501344D33F93
:101470000000F07F9ACC020091CC0200BB8F0200EA
:101480000000F83F608902003889020000230B93B6
:10149000239B0AEB030909F10103012B0893B8BF51
:1014A000012395E70123F2E70124002322930B9403
:1014B0004FF0FF390022CDF820901223239287E7C6
:1014C00001230B93F4E7DDF88C90CDF820904B4688
:1014D0007EE70131716052007EE70227ACE7E10749
:1014E00008D5DDE91001D6E90023FFF7A5FACDE91B
:1014F00010010137641008369FE700F0A580CAF19B
:101500000004A44BA44E04F00F0203EBC203D3E982
:101510000023DDE90C01FFF78FFACDE90401241166
:1015200000230227002C40F08480002B8DD10F9BDC
:10153000002B00F08B80DDE90434CDE91034DDE9C7
:101540001001964B0022FFF7E9FC00287ED0089B93
:10155000002B7BD0B9F1000F38DDDDE91001904B95
:101560000022FFF769FACDE904010AF1FF380137DB
:101570004C463846FFF7F6F9DDE90423FFF75CFA3D
:10158000884B0022FFF7A2F8A1F15076CDE91001B7
:101590001196002C5DD1DDE90401834B0022FFF799
:1015A00093F802460B46CDE90423109A3346FFF721
:1015B000D3FC002840F09782DDE90401109A06F17F
:1015C0000043FFF7ABFC002840F08B82DDE90C34D0
:1015D000CDE90434179B002BC0F25181BAF10E0FF4
:1015E00000F34D816B4B03EBCA03D3E90034CDE923
:1015F0000634239B002B80F2DB80089B002B00F33A
:10160000D78040F06D82684B0022DDE90601FFF7CC
:1016100013FADDE90423FFF795FC089C2646002811
:1016200040F04382039F312307F8013B0AF1010A8E
:101630003FE2E20705D5D6E90023FFF7FDF90137C0
:101640000123641008366DE7022770E7089CD04636
:101650008FE703994F4B214412910B9903EBC4037D
:10166000DDE9106753E90223002946D04F490020E5
:10167000FFF70CFB3B463246FFF726F8CDE9100199
:10168000039FDDE90401FFF787FC0446FFF76AF9D1
:1016900002460B46DDE90401FFF716F83034024636
:1016A0000B46CDE9042307F8014BDDE91023FFF7D2
:1016B00035FC002865D1DDE9042338490020FFF717
:1016C00003F8DDE91023FFF729FC002840F0B6807D
:1016D000129B9F423FF47AAFDDE91001304B0022AC
:1016E000FFF7AAF92E4BCDE910010022DDE9040134
:1016F000FFF7A2F9CDE90401C3E730463946FFF709
:101700009BF9CDE91001129B039C1493DDE90401C0
:10171000FFF742FC1590FFF725F902460B46DDE97D
:101720000401FEF7D1FF159B303304F8013B129BF7
:101730009C4206460F464FF0000224D11B4BDDE9C8
:101740001001FEF7C3FF02460B4630463946FFF74D
:1017500003FC002871D1DDE9102314490020FEF7B5
:10176000B3FF02460B4630463946FFF7D7FB002849
:101770003FF42CAF149F7B1E149317F8013C302BC1
:10178000F8D0C24649E0064BFFF756F9CDE904010F
:10179000BCE700BF60890200388902000000F03F0A
:1017A0000000244000001C40000014400000E03F06
:1017B000DDE90489039FDDE9062340464946FFF73A
:1017C00065FAFFF7E9FB0446FFF7CCF8DDE90623ED
:1017D000FFF732F904F130060B460246494640460F
:1017E000FEF772FF07F8016B039E089BBE1BB34216
:1017F00038D102460B46FEF769FFDDE90623804635
:101800008946FFF7A9FB58BBDDE906234046494658
:10181000FFF77AFB08B1E10722D42846594616F0B3
:1018200028FB00233B70249B0AF101001860269BD3
:10183000002B3FF4E7AC1F60E4E427463B461F461D
:1018400013F8012D392A07D1039A9A42F7D1039947
:10185000302208F101080A701A7801321A7090E7F4
:10186000D046EBE7A14B0022FFF7E6F80022002369
:1018700080468946FFF748FB00289CD0CDE70B9AAD
:10188000002A00F0CD80229A012A00F3AF80139A3B
:10189000002A00F0A78003F233430A9C069F069AB1
:1018A0001A440692099A01211A442846099216F010
:1018B00083FB0646002F0CDD099B002B09DDBB4294
:1018C000069AA8BF3B46D21A0692099AFF1AD31A63
:1018D00009930A9BF3B10B9B002B00F0A580002C11
:1018E00010DD3146224628460FF088F85A46014658
:1018F0000646284616F069FB59468046284616F0EB
:10190000B8FAC3460A9B1A1B04D0594628460FF062
:1019100075F883460121284616F04EFB0E9B002BDE
:10192000044640F383801A46014628460FF066F8C5
:10193000229B012B04467CDD4FF00008236904EB59
:101940008303186916F0EAFAC0F12000099B1844D5
:1019500010F01F0000F08E80C0F12003042B40F334
:101960008780C0F11C00069B03440693099B034437
:1019700007440993069B002B05DD59461A46284665
:1019800016F0BFFB8346099B002B05DD21461A4656
:10199000284616F0B6FB04460F9B002B6CD0214660
:1019A000584616F00DFC002866DA002359460A2234
:1019B000284616F075FA0B9B0AF1FF3A8346002B76
:1019C00000F08B81314600230A22284616F068FA7F
:1019D000B9F1000F064600F39180229B022B40F3E1
:1019E0008D8051E0169BC3F1360356E7089B5C1EC1
:1019F0000A9BA342BFBF0A9B0A94E21A0E9BB6BF82
:101A00009B181C1B0E93089BB8BF0024002BB9BF6A
:101A1000069B089A069F089BBCBF9F1A00233EE7BF
:101A20000A9C069F0B9E45E70A9A6EE7229B012BB4
:101A300019DC049BBBB9059BC3F313039BB9059B3E
:101A400023F000431B0D1B0583B1069B0133069356
:101A5000099B013309934FF001080E9B002B7FF483
:101A60006DAF012072E74FF00008F6E79846F4E703
:101A700080D018461C3076E7089B002B38DC229B70
:101A8000022B35DDDDF82090B9F1000F0DD1214694
:101A90004B460522284616F003FA014604465846EE
:101AA00016F08EFB00283FF7BDAD239B039F6FEA26
:101AB000030A4FF000082146284616F0DAF9002EF6
:101AC0003FF4ABAEB8F1000F05D0B04503D04146AE
:101AD000284616F0CEF93146284616F0CAF99CE69B
:101AE00000242646E1E7C24626469BE50000244046
:101AF0000B9BDDF82090002B00F0F680002F05DD19
:101B000031463A46284616F0FCFA0646B8F1000F70
:101B100055D07168284616F078F9326902320746C6
:101B2000920006F10C010C3015F0A2FE012239469C
:101B3000284616F0E6FA039B01330893039B4B44B7
:101B40000A93049B03F00103B04609930646089BE1
:101B50002146013B5846049316F06AF80346303399
:101B60000690414658460B9316F02AFB32468146B2
:101B70002146284616F03FFBC2680B9B074602BB76
:101B80000146584616F01CFB0B9B02463946284678
:101B9000CDE90B3216F06DF9229B0C9A089F43EAAF
:101BA0000201099B0B430B9B0DD1392B29D0B9F1B5
:101BB000000F01DD069B3133049A13707BE730463A
:101BC000B9E70122E2E7B9F1000F06DB229941EA09
:101BD0000909099959EA010120D1002AECDD594689
:101BE00001222846089316F08CFA2146834616F007
:101BF000E7FA0028089B02DCDED1DA07DCD5392BB6
:101C0000D8D1049A392313703B461F46013B17F87D
:101C1000012C392A50D001321A704CE7002A03DD1A
:101C2000392BEED00133C7E7089A0A9902F8013C34
:101C30008A422AD0594600230A22284616F030F953
:101C4000B04583464FF000034FF00A024146284654
:101C500007D116F025F980460646089B0133089304
:101C600075E716F01DF93146804600230A22284602
:101C700016F016F90646F0E7B9F1000F039ACCBF4B
:101C80004F46012717444FF00008594601222846C5
:101C9000089316F036FA2146834616F091FA00288A
:101CA000B2DC02D1089BDB07AED43B461F4613F8DB
:101CB000012D302AFAD0FEE6039A9A42A5D10AF104
:101CC000010A312379E7134BFFF7BBBA269B002BA0
:101CD0007FF493AA104BFFF7B4BAB9F1000F03DCFD
:101CE000229B022B3FF7D0AE039F2146584615F0AA
:101CF0009FFF00F1300307F8013B039ABA1A9145A0
:101D0000BADD594600230A22284616F0C9F8834650
:101D1000EBE700BFBA8F020091CC02001FB5114C57
:101D20004FF47823236010480CF082FC216801AA4C
:101D300014F053F810B10D480FF053F8029B0A4904
:101D40000848A3814FF400429BB2B2FBF3F3E38156
:101D500001F0D0FA044610B105480FF042F82046D1
:101D600004B010BD78190020589002006B9002005A
:101D70008490020013460A460146014801F008BC5F
:101D80007819002013460A46014601480FF052BF59
:101D9000781900202DE9F74300230193FFF7BEFFD8
:101DA000014610B138480FF01CF8384CDFF8F890B5
:101DB000374F25460026C846D9F80030B34211D81F
:101DC000344F354EDFF8E4900025D8F80030AB42B0
:101DD00028D800F06DF810B130480FF002F803B0C9
:101DE000BDE8F083297AC1B94FF40062384615F096
:101DF0007AFD2B4A6B684FF4006138460EF054FBB5
:101E0000AA8928783946FFF7B5FF4FF424700021DE
:101E10000DF052FA01361035CEE72946AA8911F89D
:101E2000040BF0E7217AB9B94FF40062184815F0B5
:101E30005AFDA28916492078FFF7A4FF14491948D2
:101E40000EF0CFFF61681248FFF7CEF888B1218805
:101E500030460EF0C6FF0FE0A289207801A9FFF7F7
:101E600091FF019938460EF0BCFF6268019B9A42CF
:101E7000EDD148460EF0B5FF4FF4247000210DF06F
:101E80001BFA01351034A0E7A09002009800002052
:101E90007811002009920200B7900200CB90020056
:101EA000FFC402008192020088010020C490020059
:101EB0002DE9F04F864C6669ADF50F7D05A9F0B2AE
:101EC00002F048FB021E25460ADA824831460EF02F
:101ED00088FF4FF0FF3420460DF50F7DBDE8F08FF1
:101EE000059A7D4893680093D368526831460EF096
:101EF00078FF204604F044F9031E05DAE2686169C0
:101F000076480EF06EFFE4E7E16875481A460EF079
:101F100068FFE06808A904F0E5F8041E0DDA7148CE
:101F200021460EF05EFF6A4804F0CCF9E9680446E9
:101F300002466D480EF055FFCDE70B9B01930A9BBF
:101F400000936A4FE9686A486A4EDFF8E091DFF86B
:101F5000E0B1DDE908230EF044FF396866480EF071
:101F600040FF4FF000083A68EB68904527DB0022FD
:101F7000194606A8CDE9062203F054FFE9685F4E32
:101F8000024604465E480EF02CFF002C13DB4FF493
:101F9000847200214CA815F0A6FC4CA906A803F0F9
:101FA000ABFF041E07DB9DF83131002B40F082802F
:101FB00054480EF016FF06A804F022F8B3E7FF22FB
:101FC00000210CA8039315F08EFC3268039B00924D
:101FD000FF214D4A0CA80EF067FA22460CA948468C
:101FE0000EF0FFFE4CA90CA804F02EF80CA9044634
:101FF000024648460EF0F5FE002C05DB8D9A0DF2E8
:10200000311158460EF0EDFE0CA906A803F03EFE75
:10201000021E04DA3D480CA90EF0E3FE83E700221D
:10202000114606A803F0E0FE0CA9024638480EF05F
:10203000D8FED6E901A406A82246514603F0B6FE12
:102040000CA9024633480EF0CCFE0022114606A829
:1020500003F0CAFE0CA9024603902D480EF0C1FE03
:10206000039A002A09DB2C49224606A803F080FEC9
:102070000CA9024629480EF0B4FE274822465146D4
:1020800015F0E8FBA0B926480EF0ABFE06A803F059
:102090004DFE0CA90246044622480EF0A2FE4FF463
:1020A000A47000210DF008F908F101080C365AE778
:1020B0001D48E9E79DF830318D9A002B08BF462175
:1020C0000DF2311318BF442130460EF08AFE5CE752
:1020D0008C020020DC900200049102002891020092
:1020E000459102005391020085920200AC0200204B
:1020F00066910200288A0200A391020079920200F0
:102100005B9202006B920200B2910200D691020033
:10211000E9910200FC910200F04100200D920200C2
:102120001A9202004D92020030920200B891020011
:10213000C591020030B50A4C0A44914200D130BD2D
:1021400011F8013B58400309E35C83EA0013DDB258
:10215000C3F30313E05C80EA0510C0B2EDE700BFF3
:1021600025B302002DE9F04F85B09B460E9CDFF8A9
:102170009090012CB8BF0124012B0CBF30232023E9
:10218000154606468A46029301274FF00A080022A8
:10219000B5FBF9F301930AB9A9451FD8019B514634
:1021A00003F13000B04701370122019B08F1FF38ED
:1021B000B8F1010F09FB13554FF00A03B9FBF3F90E
:1021C000E6D1514605F13000B047BBF1030F02D113
:1021D000E41B002C0EDC05B0BDE8F08F4445E4DBC9
:1021E000BBF1020FE1D8029803925146B047013784
:1021F000039ADAE751462020B047013CE9E700BFE7
:1022000000CA9A3B014B1860704700BFB002002023
:102210002DE9F04F8DB01C460027531E05468B4616
:1022200003934FF0FF39B846002605E06EB9252824
:1022300000F071815946A847039B13F8010F0393DF
:102240000028F3D10DB0BDE8F08F7A280AD86228B3
:1022500010D8302854D045D8252800F05A812D2890
:1022600000F05F8159462520A847039B18785946FE
:10227000A847D9E7A0F16303172BF3D801A252F8BE
:1022800023F000BF0B2501004F2301006522010050
:102290006522010065220100312301004F23010066
:1022A0006522010065220100312301006522010041
:1022B0006522010065220100F12301006522010071
:1022C00065220100DB24010065220100BF2301001B
:1022D0006522010065220100ED2201006522010056
:1022E0003123010039281AD95828BBD1039B1B7808
:1022F000702B40F0888054F8043B0693002290E055
:10230000B9F1000F0EDAB8F1000F00F00D81A0F165
:102310003009B8F1000F08BF4FF002088CE7B9F19F
:10232000000FF4DB0A2303FB0909A9F13009F0E7E8
:10233000682803D1682F06D148277DE76C2802D191
:102340006C2F00F0F480002F8CD1074674E77A2FB1
:1023500002D154F8046B21E06C2FFAD04C2FF8D145
:10236000073424F00704F4E80223CDE90423049B96
:1023700013F10041059B089143F100010991DDE94A
:10238000082300214FF0FF30994208BF904204D249
:10239000594628460EF004FD46E7049E002E05DA55
:1023A00059462D20A847764209F1FF39CDF8009013
:1023B0004346324659462846FFF7D4FE34E77A2F83
:1023C00002D154F8042B0FE06C2FFAD04C2FF8D127
:1023D000073424F00704F4E8022300214FF0FF3013
:1023E000994208BF9042D3D3CDF800904346E1E72D
:1023F00059463020A84759467820A8474FF0080989
:102400004FF0010872E76C2F3FF475AF4C2F7FF44B
:1024100072AFE31D23F007031C4654F8082B069205
:102420005A6800211023049107914FF0400AAAF145
:10243000040A0699CAF1200EAAF1200C21FA0AF02A
:1024400002FA0EFE40EA0E0022FA0CFC40EA0C00F2
:1024500010F00F0007D1079911B9BAF1000F25D17B
:102460004FF0300C05E009288CBF4FF0570C4FF0AF
:10247000300C6044594640B20A920793A847049B27
:102480000A9A01330493079BBAF1000F23D1B8F1E4
:10249000030F7FF4C9AE049BC3EB4906002E7FF700
:1024A000C3AE59462020A847013EF7E7591E99457B
:1024B0000A9107DBB8F1010F06D10B925946302083
:1024C000A8470B9A0A9BB2E7B8F1020FFAD10B9218
:1024D00059462020F4E70796A9E754F8046BB24662
:1024E00053461AF8010B68B9B8F1030F21D19E1BAE
:1024F000A9EB0606002E7FF797AE59462020A84785
:10250000013EF7E75946A847EAE754F8040B594655
:10251000AEE65946ACE63746B0464FF0FF390126E5
:102520008AE64FF0030887E64FF0010884E64C275F
:1025300082E6064680E600BF30B585B0CDE90101F0
:10254000044600250548039501A9FFF761FEDDE972
:1025500002309842B8BF255405B030BDBD0D020011
:1025600030B51049104889B0002215F012F90F4D0E
:102570000F4900220023CDE9062300240E23CDE9D4
:102580000334CDE901440B4B00944FF440722846CC
:102590000CF046FF0849284614F0F4FF204609B025
:1025A00030BD00BFBD25010040110020741A00207D
:1025B000A06600203D2A010035B3020001480CF05E
:1025C000A1BE00BFF40E0020F0B505460F4E00205E
:1025D00003460246012715F8014B0CB18B4200D38C
:1025E000F0BD252C02D182F00102F4E7002AF2D0DE
:1025F00014F806C01CF0030FEDD0732C04BF07FACB
:1026000003F2104301330022E5E700BF35CB02009F
:1026100008B500F075FA09480EF094FE0423342240
:102620000749084814F0AFFD074B084A1A604FF4F9
:102630000040BDE8084000F0ABBC00BF501A0020CD
:1026400060A20020581A0020B40200208313020068
:10265000F8B50F4BBFF35B8F002553E8007F43E8CD
:102660000052002AF9D1BFF35B8F0A4C0A4E361B89
:102670003611B54200DBF8BD63685B792BB1236886
:10268000DB6813B139462046984701351034F0E72E
:10269000481A0020E8880200F8880200064BBFF3C1
:1026A0005B8F53E8002F013243E800210029F8D165
:1026B000BFF35B8F704700BF481A0020044A054BE8
:1026C0009B1AB1EBD30F34BF52F831000020704792
:1026D00030880200E8880200094B4268C31A1B11C7
:1026E000013310B513714368064C196001225A7109
:1026F000227812B904480CF005FE0123237010BDA6
:10270000E8880200F0610020F40E002070B5164B3E
:10271000164C1B1B9F2B4FEA231606D9144B154A48
:1027200015484FF4F9710DF061F9144BBFF35B8F4D
:1027300053E8005F6A1C43E800210029F8D1BFF389
:102740005B8F0DB9B54200D170BD237B43B12368C7
:102750005B6903B19847042200212046FFF7BCFFC4
:1027600001351034EEE700BFF8880200E888020067
:102770006AB30200FAB302003DB302004C1A002013
:10278000164B984273B5044602D3154B984220D39A
:1027900014480022002301A90CF004F90546D8B919
:1027A0000122019BBFF35B8F53E8001F43E8002029
:1027B0000028F9D1BFF35B8F019E331D2D222146E6
:1027C000184615F00BFA7E2286F8312086F8325032
:1027D0000446204602B070BD034CFAE7D0850200E3
:1027E000A4CC0200581A00209DB3020048B1054B4A
:1027F000984205D3D03398422CBF00200120704767
:102800000020704760A200202DE9F04F4C4B1B7850
:1028100085B0044603B960B34FF02003EFF311868F
:1028200083F31188BFF36F8F46480EF09BFD05467A
:1028300086F31188BFF36F8F78B1BFF35B8F424B84
:1028400053E8002F013A43E800210029F8D1BFF3F3
:102850005B8F94B128460EF094FE24B93B4B1B6865
:102860000BB1FFF7F5FE37480EF07AFD041E18BFD6
:102870000124204605B0BDE8F08F354B1B78CBB95D
:102880002B7ADB0716D40EF08FFE804628460EF01A
:1028900056FE01464046FFF797FE2E4F2E4BDFF8BF
:1028A000D4B0DB1BDB0803932C4BDB1B06464FEA43
:1028B000D30A36B92A4E2B4FBF1B3F114FF00008E9
:1028C0003AE0B6FA86F1C1F11F09494628460EF0F2
:1028D00039FE254B9842014602D3244B98421AD325
:1028E0000846FFF783FF0246A8B9214B994212D050
:1028F0006B8903989909B0EB931F4FEA8A1343F051
:10290000010388BF57F83120ADF8003049464346EF
:1029100058460EF074FD012101FA09F126EA01067C
:10292000C7E773685B7923B1336829461B68304673
:10293000984708F101081036B845F2DB8AE700BF76
:10294000F0610020501A0020441A0020481A00208C
:10295000F161002030880200E888020068880200E7
:10296000E8880200F8880200D0850200A4CC0200AA
:102970009DB30200B7B30200294B73B51B684181B8
:1029800004469847274DE060BFF35B8F55E8003F52
:10299000013345E80032002AF8D1BFF35B8F4FF0D6
:1029A0002003EFF3118683F31188BFF36F8F1E4866
:1029B00021460EF0CBFC86F31188BFF36F8F1B4BC3
:1029C0001B7883B14FF02003EFF3118483F3118858
:1029D000BFF36F8F0020FFF717FF84F31188BFF359
:1029E0006F8F02B070BD124A2B681268002AF8D0AF
:1029F000012B0AD100220023CDE900230D484FF41A
:102A0000004200230CF06EFFEBE70A2BE9D10948E6
:102A100014F0CBFE084802B0BDE870400CF072BC68
:102A2000B4020020441A0020501A0020F161002056
:102A3000E81A002040110020F40E002010B5FFF726
:102A400065FE0CF059FC0C4B186030B10B4B1B6849
:102A5000092B02DD0A480CF055FC094C0020FFF759
:102A6000D3FE0028FAD14FF0FF324FF0FF3320465B
:102A70000CF06EFCF2E700BFE81A0020441A0020B8
:102A8000F40E0020F8B50E4F3D7875B90D4C0E4E82
:102A9000FFF73CFE361B3611B54207DB0020FFF77F
:102AA000B3FE0028FAD101233B70F8BD63685B795F
:102AB0001BB1236820461B69984701351034EBE7AA
:102AC000F1610020E8880200F888020007B50438A8
:102AD0000190BFF35B8F50E8003F5A1E40E8002191
:102AE0000029F8D1BFF35B8F012B03D1034801A963
:102AF0000BF08AFF03B05DF804FB00BF581A0020FA
:102B00002023024902481A4614F03DBB30A300209E
:102B1000EC1A002037B50023094D01930120FFF77F
:102B200073FE0446FFF7BAFD0022002301A92846E0
:102B30000BF038FF08B1002CF0D1019803B030BD84
:102B4000EC1A002007B50023019307480022002358
:102B500001A90BF027FF10B1FFF7DCFF01900198EE
:102B600003B05DF804FB00BFEC1A0020F0B5037A57
:102B7000457A85B02D090190D8071CD4DDB1002419
:102B80002646019831460EF0DDFC0746FFF72EFE83
:102B900070B134B9019B29461869FFF715FD044649
:102BA00048B124FA06F3D90702D53846FFF78EFF5D
:102BB0000136AE42E5D3019B1A7A920704D55B69D0
:102BC000084C0393039B2BB9064801A90BF01CFF8B
:102BD00005B0F0BD1D6803A920460BF015FF039555
:102BE000F0E700BFEC1A00200EB403B503AB0146BA
:102BF00053F8042B04480193FFF70AFB002002B0AE
:102C00005DF804EB03B07047F51902002DE9F04FB1
:102C100085B011F0020490469DF8387006461A46B9
:102C200001F0010901F0080507D011F0440F37D178
:102C30003249FFF7D9FF01460C46B9F1000F0AD01F
:102C40002F4B304953F827202F4B3046002A08BF1E
:102C50001A46FFF7C9FF3DB12C4B2D4953F82720E9
:102C60003046FFF7C1FF0546B8F1000F43D00123FE
:102C700003FA07F7274B17F0100F274F18BF1F460F
:102C8000BDF840109DF83C00FFF718FD394602469C
:102C90003046FFF7A9FF2844204405B0BDE8F08F77
:102CA0001E4B19680029C7D01D4B4FF4616E1B687D
:102CB000B2FBF3F34FF47A7CB3FBF1F4B4FBFEF216
:102CC0000EFB124E01FB14340CFB04F44FF03C0AD3
:102CD000B4FBF1FB01FB1B440CFB04F4BEFBFAF359
:102CE000B4FBF1F1CDE901B10AFB13E100910D490B
:102CF000FFF77AFF9FE7084FC2E700BF11B4020059
:102D0000188B0200FFC4020003B402002C8B0200E7
:102D100036B402000DB4020008B40200081B002003
:102D20000C1B00201AB4020038B50C46E10705461A
:102D300003D5084A0849FFF757FFE20608D4A3065F
:102D400028464CBF05490649BDE83840FFF74CBF4F
:102D500038BD00BF03B40200FFC402003DB402004E
:102D60003CB402002DE9F0471D46089B1746DA06E1
:102D700004460E4605D499064CBF2B492B49FFF754
:102D800033FFDFF8B0904FF00008A8452DDBDFF8E7
:102D9000A880DFF8A890DFF89CA00025BD4232D2C1
:102DA000725D49462046FFF71FFF0135102D23D1E4
:102DB0001F49DFF88080DFF88890DFF888A0204680
:102DC000FFF712FF0025AF4229D9725D12F80930D2
:102DD00013F0970F08BF2E2251462046FFF704FF3D
:102DE0000135102D14D1BDE8F08749462046FFF784
:102DF000FBFE08F10108C8E76A07CFD1514620461B
:102E0000FFF7F2FECAE741462046FFF7EDFECCE7AA
:102E10006B07D8D141462046FFF7E6FED3E741468F
:102E20002046FFF7E1FEDBE73DB402003CB40200C0
:102E300049B4020047B4020045B402003FB40200A6
:102E400035CB02004BB402002DE9F0478B7A13F02A
:102E5000070817468AB00A7A05460E4620D04989E7
:102E6000C3F3C2038909D243CDE900830291F36819
:102E700002F001023946FFF7C9FE8146347AE44385
:102E800014F001040ED0294630460EF049FCB8F18A
:102E9000000F2BD0424639462846FFF745FF25E074
:102EA000C146EBE7B8F1000F26D12746EB68069341
:102EB00006AA3B46A96830460EF01EFC069A6B68CF
:102EC0001A603AB1AB68134413F8014CA4F10A0339
:102ED0005C425C4128460EF080FD069B1F44002B9F
:102EE000E4D11CB113492846FFF77EFE28460EF0B8
:102EF00074FD0AB0BDE8F08730460EF055FB0E4970
:102F000002462846FFF770FE4FF0100A05AA234636
:102F100006A93046CDF814A00EF0EEFB059A002A63
:102F2000B8D04B46009706A92846FFF71BFF059B24
:102F30001C44EBE74EB40200FFC4020073B5D0E9B5
:102F400000435D680F4A42F20F738B4228BF0B4665
:102F5000684605210DF052FF2B4606460A492046D9
:102F60000B220EF0D0FB2B463246694620460EF06F
:102F7000CAFB06492B461B2220460EF0C4FB02B0BA
:102F800070BD00BF38B902008CB4020070B40200FA
:102F9000084A10B50123084C13600021A04204D850
:102FA00001B11360054B186010BD40085B000121A2
:102FB000F4E700BF0C1B002040420F00081B00205C
:102FC000014B01221A70704702620020024B034835
:102FD00001221A700EF001BD03620020588B02001E
:102FE0000148FFF7ABBF00BF588B020010B5084681
:102FF0000C460EF097FA054821460F22FFF724FFF2
:103000002046BDE810400EF0BCBA00BF588B02004D
:10301000054B1B781BB141F2883014F0B1BAA420E3
:1030200000210CF049B900BF036200202DE9F84FE0
:10303000DFF89090DFF890B007460E460424CA46A9
:1030400099F8003033B94FF0FF324FF0FF33584654
:103050000BF016FD32463946002001F0ADFF9AF81C
:103060000030804613B958460BF082FD144DB8F17C
:10307000000F18D001232B709AF8003033B9304676
:10308000BDE8F88F5CB92C704FF0FF34002002F0DF
:1030900013F80028F3D02B78002BF3D1EFE7013C95
:1030A000FFF7B6FFF2E72B7813B1013C04D12C7087
:1030B0002B78002BC4D1E2E7FFF7AAFFF8E700BFA7
:1030C00002620020036200204C0F00202DE9F04333
:1030D000082385B00D460968047C07460EF0A8FC5D
:1030E00068B9082120460EF0EFFC2968BB8901442D
:1030F0008AB21B1A9A420646296003D0002005B006
:10310000BDE8F0830B0C03BFFB8903F1FF3301EB38
:103110000341A1F58031296008236A4638460EF044
:1031200087FC0028EBD16A46034612F8011BFF29F1
:1031300015D10133082BF8D17B682B60DFE7BB8901
:10314000BDF802109B1B99420FD2B1FBF6F306FBB0
:10315000131353B9240C24040C442C60CFE76846A5
:103160000EF09DFC2C680028E9D0104BA41B2C60AD
:1031700004EA03089946A045C0D208230DEB0302D8
:10318000214638460EF054FC0028B8D102A80EF0B3
:1031900086FC40B9BDF80A30BDF80C202C6008EA66
:1031A000090813449844A41BE5E700BF0000FFFF93
:1031B0002DE9F04F054695B0007C08210EF084FC07
:1031C0006B681B0C1B04064603A9E88903930EF0E9
:1031D00085FC039BA98906AF1944891B08233A463D
:1031E000284604910EF024FC041E71DB0023FA5CD7
:1031F000FF2A71D10133082BF9D1039928460EF02B
:103200009DFC044664E057453E4628BF564633467B
:103210000CAA414628460EF00BFC0446002857D164
:1032200036B1A96833460CAA28460EF0ADFC044618
:10323000287C31460EF048FCAA680244AA60002CA3
:1032400046D1AAEB060AB04438E0019B5B45D4D0D6
:1032500008AA04A92846DDF810B0FFF737FF044696
:10326000002835D16B6805930AAA05A92846059F51
:10327000FFF72CFF044658BBBDF82820BDF82030CE
:103280009A42F1D10AA80EF00AFC0028ECD15F4561
:10329000DBD1BDF82430002BD7D0BDF822300BEAAB
:1032A0000908984408A8AB68ADF822300EF003FC7A
:1032B0002F7CBDF824A07F4207F02007BAF1000F51
:1032C000A1D108A928460EF0A4FC04460028BCD0D1
:1032D000204615B0BDE8F08F049BBDF81A109A1B6C
:1032E0000192034A13400B4404939146B0E700BF98
:1032F0000000FFFF2DE9F043044687B00D4600F1C2
:103300001406304613F079FF28460BF091F9A062BD
:1033100078B9944B94499548C91AC908890141F074
:1033200001010EF032F86FF00505284607B0BDE840
:10333000F08383681B7D2374202B0CD98A49894B29
:103340008B48C91AC908890141F001010EF01DF826
:103350006FF01505E9E7A06A216803AA12F03DFDA8
:1033600040B181497F4B8348C91AC908890141F09E
:103370000101EBE7A3892BB1049AB3FBF2F502FB41
:10338000153545B17849774B7B48C91AC908890179
:1033900041F00101DAE7E389012B08D87249714B4A
:1033A0007648C91AC908890141F00101CEE70095A4
:1033B0004FF0FF324FF0FF3330460BF061FB207CC3
:1033C00008210EF081FBA9460746E3891FFA85F81C
:1033D00043456BD8E3894B4500F0A88098450AD156
:1033E00000990822C91B20460EF083FB18B9E0891A
:1033F00069460EF073FB009BDA1B6260604A134063
:10340000A3609046D4E9011399420FD3082301AA7F
:1034100020460EF00DFB054620BB01AB13F8012B37
:10342000FF2A40F086800135082DF7D1D4E901212B
:103430008A4206D9521A20460EF05BFB051E11DBAC
:1034400057D16368DFF83881E08903EA08036946E9
:1034500000930EF043FBA289009920460EF049FB31
:10346000051E4BDA30460BF083FB002D7FF45DAF79
:10347000012363743C4E3B4BA289E1894148F61A13
:10348000F608B60146F0030633460DF09FFF61686B
:103490003D4833468AB2090C0DF098FFA1683B48BD
:1034A0008AB23346090C0DF091FF3EE7A1892B0447
:1034B000C91B13FA81F10822204600910EF019FB76
:1034C00078B1E08969460EF009FB09F1010900991C
:1034D000082220461FFA89F90EF00BFB00283FF462
:1034E00079AF013571E7B9F1000F37D06FF01C05E6
:1034F000B8E7A368227C1344A36097E7B2D0616861
:1035000020460EF01BFB05460028ABD16368A0895E
:1035100003EA08030344A3EB4700606000EA0800E5
:10352000A0602046FFF744FE05469BE76FF02C05A0
:1035300098E701A80EF0B3FA656878B90098BDF86D
:103540000620BDF8089000EA080002444946207CA5
:103550000EF0BAFA1044A842A060C4D0ED1B65601A
:1035600050E700BF3088020050880200BCB402005F
:10357000D8B40200F5B402000DB5020021B5020076
:103580000000FFFF44B502005BB502006DB502000C
:103590002DE9F04F1E46437C89B00446894690468B
:1035A0007BB9684B68496948C91AC908890141F063
:1035B00001010DF0EAFE6FF00C05284609B0BDE8E8
:1035C000F08F90F810B0082158460EF07DFAA389CC
:1035D00000EB40029B1AB3428246C0F0AE801EB19F
:1035E000B8F1000F00F0A9806368039304AA03A94F
:1035F0002046039FFFF76AFD05460028DDD1BDF890
:1036000010304B4505D06268039B9A42EED1D6B983
:10361000D3E704A80EF043FA0028F4D1BDF8143023
:103620007EB1B3420FD1BDF81200390C0904014438
:103630003346424620460EF009FA002803DC0546D0
:10364000BBE7002BB9D0314658460EF03DFA07468D
:1036500000283FD104F1140A4FF0FF334FF0FF323E
:103660005046DFF8ECB00BF00BFA0023E2899342EE
:1036700060D0D4E90121781882422ED3FF2306A816
:10368000ADF81890ADF81A10ADF81C608DF81E302A
:103690000EF011FA36B1A1683346424620460EF0CC
:1036A00073FA0546207C31460EF00EFAA3680344F7
:1036B000A360002D44D106A920460EF0AAFA0546C3
:1036C00000283DD13246019250460BF051FA019A42
:1036D000154672E75744BFB2BCE7207C019308212E
:1036E0000EF0F2F94FF6FF71ADF818100021ADF8A9
:1036F0001C101118ADF81A10A18902EA0B020A4435
:10370000101A606006A80EF0D6F906A920460EF041
:1037100080FAE089211D0EF0E1F9626802EA0B02ED
:10372000A2602046FFF744FD02460028CBD1019B52
:1037300001339BE76FF01B02C5E76FF015053CE70F
:103740002A46C0E73088020050880200A8B4020070
:103750000000FFFF2DE9FF471E46437CBDF8309077
:1037600004460F46904673B92B4B2C492C48C91A76
:10377000C908890141F001010DF007FE6FF00C004E
:1037800004B0BDE8F087007C08210EF09DF9A38904
:10379000A3EB4003B3423BD3636801934FF0000AAD
:1037A00002AA01A92046019DFFF790FC0028E7D15D
:1037B000BDF80830BB4207D102A80EF070F918B965
:1037C0000AF1010A1FFA8AFA6268019B9A4218D02C
:1037D000CA45E5D9BDF80C30BBB1CA4515D3BDF813
:1037E0000A102D0CB3424FEA054528BF3346424626
:1037F000294420460EF01CF90028C1D1BDF80C0068
:10380000BEE7BDF80830BB42E4D06FF00100B7E777
:103810006FF01500B4E700BF308802005088020046
:10382000A8B4020073B504460D4616460EF0CDFA54
:103830000828034606D90C4B0C4A0D4840F22D11BE
:103840000CF0D4F84FF0FF32CDE9002229466A4649
:1038500020468DF800600EF069FA002818BF6FF05E
:10386000040002B070BD00BF85B50200CAB50200F9
:103870009DB5020037B5054601A9022000F06AFE99
:10388000044610BB0198134A8168102310390EF0CA
:103890004DFA044601980EF02BFAB4B9C5B10220D6
:1038A0000EF0CFF9044680B9032501A9022000F0EB
:1038B00051FE044648B9019881682A462839FFF725
:1038C000B1FF044601980EF013FA204603B030BD54
:1038D0000225EAE7688B0200F0B5104B104C114D41
:1038E000E41AA4106C43104DD5F824C00025A5425D
:1038F00002D16FF08500F0BD5F6867450AD31E698D
:1039000046B197F802E00779BE4503D13346BDE8DA
:10391000F040184701352433E9E700BFF4100020D8
:103920003C110020398EE338241B00202DE9F041A2
:10393000124B134C134DE41AA4106C43124DD5F8DE
:1039400024C00025A54203D16FF08500BDE8F081B9
:103950005E6866450ED39F6967B196F80280B0F83D
:1039600004E0F04503D13B46BDE8F04118477679C5
:10397000012EF8D001352433E4E700BFF410002015
:103980003C110020398EE338241B00202DE9F84338
:103990000F4C104B17461B1B0F4A9B1005460E463B
:1039A00002FB03F94FF00008C14502D16FF085001A
:1039B0000BE063691BB908F101082434F4E73A46C7
:1039C0003146284698470028F5D1BDE8F88300BF66
:1039D000F41000203C110020398EE33807B58378BD
:1039E0008DF800300379427943EA0223ADF80230C2
:1039F000C378684603F003038DF8043001F0D6F86D
:103A000010F1780F9DF800100ED068B1124A134BD8
:103A10001348D21AD208920142F001020DF0C2FC02
:103A2000002003B05DF804FB084601F05BF910F1DB
:103A3000780F0BD050B1084A084B9DF80010094888
:103A4000D21AD208920142F00102E7E7064B0120A8
:103A500083F8B900E5E700BFC8880200308802009B
:103A6000E2B5020006B60200241B00202DE9F04F4B
:103A7000974CA36985B007460D4616468BB997F853
:103A8000008008F01F08B8F1010F00F08A80B8F13B
:103A9000020F00F0E380B8F1000F08D06FF01500BE
:103AA00002E098470028EAD105B0BDE8F08F7A78A7
:103AB00078883368092AF1D801A151F822F000BFB3
:103AC000E93A01009D3A01009D3A01009D3A01004A
:103AD0009D3A0100F53A0100FF3A01009D3A0100CC
:103AE0002D3B0100373B0100002018705870022365
:103AF0002B60D9E7C0B201F019F80020D4E7020A20
:103B0000131F012BCAD9072AC8D8636A0021C0B283
:103B10001C78002CC2D05F78974203D1884200F015
:103B2000CF8001312344F3E71B78CEE094F8BA202C
:103B30001A700123C9E0C7B28DF80F7077B14FF04A
:103B4000FF08656A0026C1462B7853B9E3691BB1AB
:103B50000DF10F0103209847002E9FD084F8BA7012
:103B6000CBE76B78042B0DD0052B0ED0022B06D1A2
:103B700095F805809DF80F30434508BF01262B7846
:103B80001D44E1E795F80390F9E79DF80F304345B0
:103B9000F5D1B9F1000FF2D12846FFF71FFF064615
:103BA000EDE7787833680A2805D00B2808D000287C
:103BB0007FF474AF99E700201870C5F8008073E7B0
:103BC000444A45493B790093521AD2089201FF2694
:103BD00042F00103D4F824B097F802A00193B04654
:103BE00000279BF800203AB9E36913B13946072052
:103BF00098470020286057E79BF80120042A05D049
:103C0000052A0ED09BF800209344EAE79BF8026057
:103C1000009B9BF80380B342F4D1C24508BF5F46C6
:103C2000F0E7009BB342EDD1C24513D09BF8029060
:103C3000484600F017FA484601F076F810F1780F80
:103C4000E0D00028DED0BDF80420244849460DF01D
:103C5000A9FBD7E75846FFF7C1FED3E7D6F8009097
:103C60007E7838798DF80F00012E0CD0032E19D0F4
:103C7000002E7FF413AF494601F01AF889F801606D
:103C8000C5F8008039E77D88002D7FF407AF00F08C
:103C9000F5FFE369002B3FF430AF0DF10F01092070
:103CA00098472AE77D88002D7FF4F8AE00F0B0FF3A
:103CB000E369002B3FF421AF0DF10F010820EFE77E
:103CC000022A33607FF430AF5B882B6015E700BFBA
:103CD000241B0020C88802003088020027B602009A
:103CE000054B064A9A62064ADA62064A1A63064A8F
:103CF00058629A6100207047241B00206D3A010031
:103D0000D93801008D3901002D3901000C4B10B557
:103D100093F8B8408CB900F071F960B9094B0A49C1
:103D20000A48C91AC908890141F001010DF02DFBAB
:103D30004FF0FF3010BDFFF7D3FF0020FAE700BFC0
:103D4000241B002030880200C888020049B6020007
:103D500030B51B4B89B003AA03F1100518685968E8
:103D6000144603C40833AB422246F7D11B782370B4
:103D70000024122221461348CDE9014413F0B3FD7B
:103D8000082101A80EF062F9A04215DD0D4901AA33
:103D900012F8013B08A800EB131003F00F0310F812
:103DA000140C087008A80344013413F8143C4B7039
:103DB000082C01F10201EBD1024809B030BD00BF6F
:103DC00079B60200046200202DE9F04F7F4A804B53
:103DD000804D81499B1A814A87B09B10002753432D
:103DE0006D1A04460193ED084FF0011BB946B84621
:103DF000BA4623784BB97A4AA01C904200F0E3807F
:103E0000FFF7E2FF07B0BDE8F08F6378052B05D818
:103E1000DFE803F0950403950730A24623781C449D
:103E2000E7E7E378002BF9D1A378C3B9674A1046D6
:103E30000199994207D1AA016A4842F0010221463C
:103E40000DF0B0FA1FE051688C4202F124020BD150
:103E50004FF0240808FB0308D8F8083033B909F1FB
:103E600001095FFA89F9D9E70133E1E749462046BC
:103E70009847F4E7B8F1000F5ED1A9015A4841F024
:103E800001010DF082FA4FF0FF30BBE7D8F8202097
:103E9000A67802EBC3021079864209D0013398F864
:103EA0001C209342F2DBA901504841F00101E8E7F0
:103EB000012694F803C094F805E00CF0030C8DF88B
:103EC00014C094F804C04CEA0E2CADF812C094F95A
:103ED00002C0BCF1000FF0B225DA06F1100C01FAB5
:103EE0000CFC1CEA0B0F23D160F07F008DF8100052
:103EF00004A8CDE9023200F029FEDDE902320121F9
:103F0000B0B99DF81030A37013F0800F137118BF73
:103F100010360B4615BFB34003FA06F64BEA030B07
:103F20004BEA060B7AE701FA06FC1CEA0B0FDDD020
:103F30000136102EBDD1B1E700230121AFE7032FD9
:103F400025D1FFF705FF064678B1FDF757F8029037
:103F500058B12748FDF752F8029A824212D0A901BF
:103F6000244841F001010DF010FA23786FF00201AE
:103F7000E218091B04EB53030020D14211D501378D
:103F8000FFB24BE73146A01C13F072FCEDE7002FA7
:103F9000EBD1BAF1000F0BD1A901174841F0010193
:103FA0006FE702F8010C13F8016902F8026DE4E70B
:103FB000A4EB0A038AF80230C3F307238AF803301C
:103FC0008AF80490DBE718461CE700BFF4100020D5
:103FD0003C110020C088020030880200398EE3388E
:103FE000F310002050B702008AB60200CBB60200E0
:103FF00079B60200E8B6020033B7020008B50948F6
:10400000FFF7E2FE58B1084B08490948C91AC90828
:10401000890141F001010DF0B8F9002008BD014807
:10402000FCE700BFC80F002030880200C0880200F3
:1040300070B70200014600F10803BFF35B8F53E83D
:10404000002F42F0010043E8000CBCF1000FF6D154
:10405000BFF35B8FD30702D4014813F04DB970470B
:10406000D440002070B54FF02003EFF3118483F3A8
:104070001188BFF36F8F0E490022442505FB02F320
:104080005E5C86420BD1CA18506810300AD16FF0BE
:104090008B0034335060C818FFF7CCFF02E00132C8
:1040A000042AEBD184F31188BFF36F8F70BD00BF7A
:1040B000E01B0020044B93F838220020012A9CBF0B
:1040C00083F8380201207047B8020020014B997034
:1040D000704700BFE30F0020F7B5037803F01F031C
:1040E000012B05460E4624D142780B2A21D1428865
:1040F00032B1012A16D06FF08504204603B0F0BD1E
:104100000D4A13700C4F01A9387800F023FA0446C9
:1041100060B9019883687B600DF0EAFD6B88FB60F5
:104120003460EAE7044B02221A70EBE76FF00404F4
:10413000E3E76FF01504E0E7B8020020012907D19A
:10414000044B93F83822012A04BF022283F8382254
:10415000704700BFB802002010B50C4C002304F1DA
:104160001000A360A4F83A320DF0BCFD68B1084B12
:1041700008490948C91AC908890141F001010DF02F
:1041800004F940F60A63A4F8383210BDB8020020E2
:1041900030880200D0880200ABB7020038B51F4B50
:1041A00093F88020022A01D0052A2BD1B3F882503F
:1041B0001B4C1A49B5FA85F35B092A4604F1100035
:1041C0000DF052FD70B11749174B1848C91AC908AC
:1041D000890141F001010DF0D8F840F20A33A4F84A
:1041E00038320AE055B9062384F83832FFF7B4FFB5
:1041F0002846FFF73FFB0028EFD138BD052384F8A0
:104200003832FAE7084B07490948C91AC908890131
:10421000BDE8384041F001010DF0B7B86C41002015
:10422000B8020020D088020030880200C0B7020027
:10423000D2B7020037B50D4B0D490022C3E9011278
:104240001A600C4D0C4813F0FBFA287801A900F015
:1042500081F9044638B9019883686B600DF048FD18
:10426000204603B030BD6FF00404F9E7001D0020C4
:104270009D410100B8020020F01C00200949BFF355
:104280005B8F51E8003F43F0010241E80020002825
:10429000F7D1BFF35B8FDB0703D40348083913F072
:1042A0002BB87047081D0020D44000202DE9F341B1
:1042B0004378074688461646062B35D8DFE813F0C4
:1042C000FC0047009F0007003E00280031008A4B99
:1042D00093F8382293F83912062A04BF022283F891
:1042E000382232681170B3F83C2231684A70120AE1
:1042F0008A7032680020D070326893F838321371B7
:10430000336858710623C8F8003002B0BDE8F08168
:10431000794A336892F838221A7001230B60002022
:10432000F3E7FFF7C7FE10B16FF01500EDE7FFF7F9
:1043300013FF714B0222A3F83822F0E7FFF7BAFE11
:104340000028F1D16C4B0222A3F83822DDE7FFF7F9
:10435000B1FE04460028E7D1674D95F838120229CE
:1043600012D0052936D0654A654B6648D21AD20864
:10437000920142F001020DF015F840F60A63A5F82B
:104380003832FFF7E9FECFE7FFF7E6FE5E4B9C60B1
:104390002B78022B0ED040F20A33A5F83832574959
:1043A000574B5A48C91AC908890141F001010CF05C
:1043B000ECFFB4E75648042280F8803085F83822B4
:1043C000FA883168A0F88220842313F05FFAFFF79F
:1043D00055FFA4E7042385F838324D4B83F880104D
:1043E000F988A3F8821029B9062385F8383246489F
:1043F0000BF0D4FAFA88316845488423E5E7FFF7E3
:1044000059FE002890D13C4D95F8381202292C46CF
:104410000AD009290AD0394A394B3E48D21AD20863
:10442000920142F00102A6E7FFF796FEFB8823B156
:10443000B4F83A127A88914204D040F60A63A4F89C
:1044400038326CE7D4E90125551B9D4228BF1D4633
:10445000802D08D8ADB1207801A900F07BF820B1FB
:1044600040F20A23EBE78025F5E73268A16801985E
:104470002B460DF03EFC064601980DF039FC002E4F
:10448000EED1B4F83A22C8F80050A3680132A4F87B
:104490003A2262682B449342A36009D1FB889D4273
:1044A00006D200200223C8F8000084F838322CE736
:1044B000092384F8383232E70F4B93F838221AB1C7
:1044C000002283F838222FE7012283F83822124B8A
:1044D00012481860FFF704FC00283FF416AF084BA1
:1044E00006490F48C91AC908890141F001010CF0B9
:1044F0004CFF6FF0040008E7B8020020D0880200EB
:104500003088020008B80200F01C0020E7B7020063
:104510006C41002022B80200F41000204910002055
:104520003CB80200094B30B51D68094B02461C68B7
:1045300000239D4201DC002030BD190104EB031073
:10454000615C9142F8D00133F3E700BFE88B0200D1
:10455000F8040020084B1B6810B50C462BB1FFF780
:10456000E1FF28B12060002010BD6FF00C00FBE7D8
:104570006FF00100F8E700BFF80400207FB50646A1
:10458000C06801AA11F029FC044668B1194A1A4B07
:10459000D21AD20892010146184842F001020CF0EA
:1045A00001FF204604B070BD0199336A8B42F8D0F8
:1045B000114B104D3162ED1AED08AD0145F00302CB
:1045C0000F480CF0EFFE2146F0680DF008FCDDE925
:1045D0000112F06883689B68984701210446F068DF
:1045E0000DF0FDFB002CDCD0064845F00102214611
:1045F000D5E700BF308802003088020077B802009B
:1046000098B80200B7B8020070B584680546A4B136
:10461000D0E90436013C1E44A119FFF7AFFF041E88
:104620000DDA314A314B32489B1ADB089B0143F0CB
:104630000103324621460CF0C9FE204670BDE868F1
:1046400000210DF0CCFBE8682A68AB6881684C68F3
:104650003146A04701210446E8680DF0C0FB54B183
:10466000214A224B23489B1ADB089B0143F001039C
:1046700032462146DFE7EB6953B92B69AA68134438
:104680002B610023AB60D8E7135DDB431355013486
:10469000AB682A689C42F7D3E86881680C683146A9
:1046A000A047044658B1104B104AD21AD2089201C2
:1046B000014642F0010210480CF074FEBDE7EB69C0
:1046C000A96828683246984704460028D5D0064B8A
:1046D000064AD21AD2089201014642F00102074866
:1046E0000CF060FEC9E700BF30880200308802008D
:1046F000D3B8020001B9020025B902003BB902009B
:104700002DE9F04F85B0DDE90E890E4692461F4631
:104710000446B0B1A9B1A2B10023D1F808B0029308
:104720008B685B69B7FBF3F503FB157565B1304921
:10473000304B3148C91AC908890141F001010CF018
:1047400024FE6FF00D004FE0DBF8103003A9304677
:1047500002AA9847DDE9023C2846019329466346B0
:10476000019A8A4215D100B1039308EB0903AB42C9
:1047700006D8DBF81420B8FBF2F302FB1383FBB17D
:104780001B491C4B1D48C91AC908890141F0010188
:10479000D5E7D3F804E05CF83120BE4502FB0E55A6
:1047A0000AD200B103931249124B1548C91AC9081D
:1047B000890141F00101C2E7083301310120CFE74F
:1047C000C4E900A7E6602361A360C4F81480B9F1CE
:1047D000000F01D1A5EB0809109BE3614FF0FF33F7
:1047E000C4F818902362002005B0BDE8F08F00BF28
:1047F00030880200308802004FB90200A6B90200DA
:1048000086B9020010B5044C2046FDF7FBFC20469B
:1048100001F05AF9002010BD1D4801002DE9F341B7
:10482000DFF86080164E8DF80700044603254FF030
:10483000FF334FF0FF3240460AF022F901220DF11A
:104840000701002000F004FC074640460AF090F9FA
:104850002FB101233370204602B0BDE8F0813378D8
:10486000002BF8D0013D08D012F084FE0028DED1E4
:10487000002142200AF020FDD9E73570EBE700BFA8
:10488000166200204C0F0020F8B5124EF3680C247D
:1048900004FB00340123054663724FF02003EFF35D
:1048A000118183F31188BFF36F8F23682BB1606888
:1048B0001A682260834208BF626081F31188BFF3E7
:1048C0006F8F03B9F8BDD3E9017229463046B84766
:1048D000E3E700BF580D0020254B07B51A6882B1E9
:1048E0004FF08042D2F80423D1070AD500221A6083
:1048F0001B680093009B1F4BDB68587A08B9FFF7D1
:10490000C3FF1D4B1A686AB14FF08042D2F80423EE
:10491000920707D500221A601B6801930120019BB2
:10492000FFF7B2FF80214FF48E700DF07CFB18B1C1
:104930004FF48E7000F0C6F84FF400714FF492708F
:104940000DF071FB18B14FF4927000F0BBF84FF40A
:1049500080714FF490700DF066FB30B14FF49070A1
:1049600003B05DF804EB00F0ADB803B05DF804FBF4
:1049700000010040580D002004010040014601489C
:1049800012F0BABC600F002000F07F03082B42B287
:1049900004D010F0780F01D000207047002A00F0FA
:1049A0000F0300F0080006DA68B90948242202FB68
:1049B00003002830704740B903F10900044B24225A
:1049C00002FB0030F5E7034870470348704700BF1B
:1049D000642F0020AC300020F03100200949BFF3E3
:1049E0005B8F51E8003F43F0010241E800200028BE
:1049F000F7D1BFF35B8FDB0703D40348083912F00C
:104A00007BBC7047742F00201832002010B5064C74
:104A10000022002320460AF0F1F818B1043012F009
:104A2000CDFBF5E710BD00BF600F0020F0B585B0ED
:104A30000026002702ADCDE900671D48182229464F
:104A400012F084FB00282BDA1A4B1B4C1B48E41A8B
:104A5000E408A40144F0010421460CF096FCFFF7A1
:104A6000D5FFCDE9006712481822294612F06EFBE7
:104A7000002807DA124821460CF087FC002318466C
:104A800005B0F0BD029B95E803001A1D82E8030003
:104A900004221A751846FFF771FFFFF79FFFEDE735
:104AA00095E80300029B1A1D82E80300E7E700BFB8
:104AB000FC04002030880200D8880200EDB9020012
:104AC0000BBA0200B0F5907F10B511D0B0F5927F0F
:104AD0001ED0B0F58E7F1DD01049114B1148C91A58
:104AE000C9088901BDE8104041F001010CF04DBC3E
:104AF0000024FFF79BFF78B1002202750473FFF7D3
:104B00003DFF094B1B793BB1BDE81040FFF766BF85
:104B10000224EEE70124ECE710BD00BFD8880200B4
:104B20003088020027BA0200642F0020064B1A7951
:104B300032B15B79002B0CBF6FF012000020704780
:104B40006FF01200704700BF642F002008B50246C6
:104B50000378127903F00F006AB958B10F49104B6E
:104B60001048C91AC908890141F001010CF00DFC77
:104B70004FF0FF3008BD082808D90849084B0A48FB
:104B8000C91AC908890141F00101EFE7012A06BFEE
:104B900083F0080040F3C0000020EBE7D888020053
:104BA000308802003FBA02005EBA0200144B1B7943
:104BB00010B5014603B304782046FFF7E5FE98B12F
:104BC00044720B7983724988416023070FD44B1ECE
:104BD0000B420CD00B490C4B0C48C91AC90889016F
:104BE00041F001010CF0D1FB6FF0150003E020460D
:104BF00011F057FA002010BD6FF01200FBE700BF64
:104C0000642F0020D8880200308802007DBA02009C
:104C1000164B1A7910B501462AB35B791BB3FFF71F
:104C2000B3FE0446E0B1837A012B0FD007D9023BD3
:104C3000012B07D9A369E3610020E06010BD07F0F4
:104C400053F9F7E7084607F0F5F8F3E70849094B89
:104C50000948C91AC908890141F001010CF095FB06
:104C60006FF01500EAE76FF01200E7E7642F00200D
:104C7000D888020030880200A5BA02000B4B1A79CE
:104C800010B5044662B15B7953B1FFF77DFE50B1B8
:104C9000204607F0F1F8204607F0CAFA002010BDC0
:104CA0006FF01200FBE76FF01500F8E7642F0020AB
:104CB00038B50B4B1A7905460C465AB15B794BB1A6
:104CC000FFF762FE48B141B1284607F0BBF82070FB
:104CD000002038BD6FF01200FBE76FF01500F8E719
:104CE000642F0020F8B50F4F3B7905468BB1FFF7D5
:104CF0004BFE044680B1284607F0BEF8267A76B906
:104D000078790123237218B1284607F03FFA30461C
:104D1000F8BD6FF01200FBE76FF01500F8E76FF0D9
:104D20007700F5E7642F00200D4B1A7910B5014686
:104D30006AB15B795BB1FFF727FE044650B1037A95
:104D40005BB1084607F0F6F90020207210BD6FF045
:104D50001200FBE76FF01500F8E76FF07700F5E75A
:104D6000642F0020821C084B22F07F42C3F84025AC
:104D7000D3F80425904200D17047D3F80405821C73
:104D800022F07F42F2E700BF00100140044B0022F6
:104D900082B01A601B680193019B02B0704700BF8C
:104DA0004011014008B5FFF7F1FF074B074AD3F860
:104DB00040051368C01A20F07F4003441360BDE82B
:104DC00008400AF0FBBC00BF00100140A4320020E4
:104DD00038B5144809F02CFC00B38368124D1B68E9
:104DE000012100249847C5F80845FFF7CFFF0F4B76
:104DF0004FF40032C3F880214FF48033C5F80433F8
:104E000022460121112000F0E7F9112000F0B2F94B
:104E1000074A0123136020462B6038BD4FF0FF3056
:104E2000FBE700BFCDB902000010014000E100E047
:104E30000810014070B52A4B2A4C1968D4F8042593
:104E4000294D521AB0F1FF3F08BF284622F07F4398
:104E5000120234D4013820EAE070A842A8BF2846E4
:104E600001334FF480361844C4F80863A84294BF55
:104E70000D184D19D4F80405D4F84015FFF786FF36
:104E8000091A21F07F4120F07F430129C4F8403501
:104E9000C4F8446304D10F2012F072FBFFF776FFD1
:104EA000124B4FF40032C3F88021D4F804052B1ABA
:104EB00023F07F43012B04D1FFF754FF0BE00020C8
:104EC000CEE725F07F43C4F84035D4F804052D1A09
:104ED000023D2B02F0D44FF48033C4F8043370BD8C
:104EE000A432002000100140FFFF7F0000E100E03D
:104EF0004FF02002EFF3118382F31188BFF36F8F1D
:104F0000064AD2F80405064A1268801A20F07F404B
:104F100083F31188BFF36F8F704700BF001001400B
:104F2000A43200204FF02003EFF3118283F31188A5
:104F3000BFF36F8F0649074B0868D3F8043582F337
:104F40001188BFF36F8F1B1A23F07F4318447047FB
:104F5000A43200200010014010B5114C114AA2618A
:104F60000323C4E90433104BE36122664FF48063EA
:104F70000E4A0F492362626600231022E01DA362DD
:104F80006362E3622367E3666367A26612F0FBFD78
:104F90000849204612F0F7FD2023A37110BD00BF81
:104FA000A8320020DABA020027620020176200202F
:104FB000E3BA0200E7BA02002DE9F84F234F4FF0A1
:104FC000180B14460BFB00720646936A556AAB42F7
:104FD000884634D8D2F820A0AAEB050909F1FF329F
:104FE000944211D84FF0180906FB09933B4422461E
:104FF00058684146284412F03BFC09FB06762C44D5
:1050000074620120BDE8F88F13449C421BD800FB5A
:105010000BBBBB444A46DBF804002C44284412F086
:1050200027FCB4EB0A0406D0DBF80400224608EBA8
:10503000090112F01DFC182000FB0676E0E7013B99
:105040005B1BA342CED20020DCE700BFA8320020C9
:10505000F8B5184C182300FB033503FB004025442A
:10506000C46A012C0F4616460FD0022C1AD0F4B990
:1050700028460DF024F8864205D83246394628469F
:105080000DF02BF834462046F8BD28460DF017F8F1
:105090008642344628BF04462246394628460DF04B
:1050A0001CF8F0E72846BDE8F8400DF032B80024BF
:1050B000E9E700BFA8320020034B182202FB0033AF
:1050C0009A6A586A801A7047A8320020094A0A4929
:1050D0009368096819670949D8664B6843F080539B
:1050E0004B60002383F31188BFF36F8F9368186FB1
:1050F000704700BF98400020BC8E020000ED00E029
:1051000012498A684FF030001044EFF3098C80E8B0
:10511000F01F202080F31188BFF36F8F0C4F4FF0EA
:1051200000664A6A8A603E60D06E0023D36680F3D0
:10513000118804B5104600F0F1FBBDE8044002F10F
:10514000300090E8F01F8CF30988704798400020E9
:1051500004ED00E01EF0040F0CBFEFF30880EFF346
:105160000980816911F8021C0229FFD001B50DF0F8
:1051700004F801BD43B2002B08DB012200F01F0040
:1051800002FA00F05B09024A42F82300704700BFB0
:1051900000E100E043B2002B0DDB01225B0900F0CF
:1051A0001F0002FA00F02033034A42F82300BFF345
:1051B0004F8FBFF36F8F704700E100E0054B42094E
:1051C00000F01F0053F82220012303FA00F01040E2
:1051D000704700BF00E100E043B2002BA8BF03F11D
:1051E000604301F10101B8BF064B4FEA4111ACBF6A
:1051F00003F5614300F00F00C9B2B4BF195483F83E
:105200000013704714ED00E02031C0E918120A4481
:10521000203A22F0070209491360009B5360019B6A
:105220009360029BD3604FF08073D36121F0010142
:10523000002391610265C366704700BF3F0E020004
:105240000B4A0346906890B113F1160F006E05D01B
:10525000A0F120029A4206D8834204D281422CBF98
:105260000021012100E00021002908BF0020704733
:1052700098400020F8B506460C4615461F4600F03B
:1052800031FB0B4B20352C449E60304624F0070444
:1052900000F044FB384684F30988002163B681F3AB
:1052A0001188BFF36F8F002200230BF0C8FD00BFF1
:1052B00098400020014910220A60704710ED00E07C
:1052C00072B6404080F31188BFF36F8FBFF34F8FEA
:1052D00030BF62B6BFF36F8F704700BF73B506462D
:1052E0000C4601B3134B144D1448ED1AED08AD01F3
:1052F00045F00105ADF80050D1E9012309680CF033
:105300007EF8ADF80050D4E90423E1680C480CF0B5
:1053100076F8E1690B482A460CF044F8A1690A487E
:105320002A460CF03FF82146304602B0BDE87040F6
:1053300009F0BAB93088020080880200EEBA020093
:105340001DBB02004CBB02005BBB020030BFFFF77D
:10535000FDBF00BF0E4A08B50E4B22F07F029A60D7
:10536000BFF34F8FBFF36F8FD3F8882022F4700202
:10537000C3F88820EFF3148323F0040383F3148825
:1053800009F00EFA09F016FA00F07AFA09F050FA6C
:105390000002010000ED00E001B572B60B4A106A90
:1053A00000281EBF0021116211F066FE62B6EFF305
:1053B0000580A0F110004FEAC0000549014409C969
:1053C0009847BDE801400349084700009840002085
:1053D000B0860200655801000CF0F7FE202080F333
:1053E000118808484FF40061401880F30988EFF3F2
:1053F00014800221084380F31488BFF36F8FFFF7F6
:10540000A9FF000020960020EFF30880EFF3098148
:10541000724601B500F04AF901BD00BF2DE9F04721
:10542000334B344C344DE41AE408A40144F0010930
:10543000074688463148494616460BF0A6FFAA6A39
:10544000D00603D52E4849460BF09FFFAB6A1907DB
:1054500004D52C4844F001010BF097FF264DAB6AB0
:105460009A0735D544F0010A274851460BF08DFFC5
:10547000D5F83490AB6A1B060BD5244852464946F2
:105480000BF090FFB8F1000F03D0AB6A23F080035C
:10549000AB62194DAA6AD00704D51D4844F001013A
:1054A0000BF073FFAB6A990604D51A4844F001016A
:1054B0000BF06BFF104B9A6AD2060CD400200E4AF8
:1054C000936A43F0FF03936200233370BDE8F087D3
:1054D0006FF01509DDE75B681B05EFD539464846D7
:1054E000FFF7AEFE0028E9D080F309880220E6E746
:1054F000308802008088020000ED00E089BB0200D5
:105500009FBB0200D2BB0200E5BB0200FDBB020054
:1055100013BC020032BC020070B5234B234C244D57
:105520002448E41AE408A40144F0010631460BF0D3
:105530002CFFAA6A930103D51F4831460BF025FFC3
:10554000AB6ADD0104D51D4844F001010BF01DFFDD
:10555000174DAA6A100304D5194844F001010BF055
:1055600014FFAB6A590304D5164844F001010BF04F
:105570000CFF0F4DAA6A920304D5134844F00101B1
:105580000BF003FFAB6ADB0304D5104844F00101C4
:105590000BF0FBFE064A936A6FEA03436FEA13437C
:1055A0009362002070BD00BF308802008088020036
:1055B00000ED00E061BC020079BC02008CBC02007E
:1055C000A6BC0200C4BC0200E9BC020003BD02008C
:1055D0002DE9F0412A4B2B4C2B4DE41AE408A40191
:1055E00044F0010807460E46284841460BF0CDFE20
:1055F000AA6AD10403D5264841460BF0C6FEAB6A21
:105600001A0504D5234844F001010BF0BEFE1E4DDF
:10561000AB6A9B0512D544F001081F4841460BF0C8
:10562000B4FEA96BAB6A180408D51C4842460BF0BF
:10563000B9FE1FB1AB6A23F40043AB62124DAB6AF3
:10564000590504D5164844F001010BF09EFEAB6AE3
:10565000DA050DD5134844F001010BF096FE0A4A15
:10566000936A002043F47F4393623070BDE8F08179
:10567000AB6A9B04F3D50C4844F00101EDE700BF91
:10568000308802008088020000ED00E02EBD02009C
:1056900044BD0200D2BB020055BD02006EBD020037
:1056A00083BD02009EBD020032BC02002DE9F04124
:1056B0005A4B5F688AB00D46C7F30804002686F38C
:1056C0001188BFF36F8F02F07F43B3F17F4F0DD18D
:1056D00002F00C03082B0BD15149524B5248C91A06
:1056E000C908890141F001010BF04FFE354603E086
:1056F000120701D40546012600238DF80730E31E6A
:10570000092B71D8DFE803F0055F633D707070709E
:105710007067444B424F4548FF1AFF08BF0147F0EE
:10572000010739460BF031FE3C4BDC6A4FF00008B4
:1057300014F002048DF8078005D03D4839460BF07F
:1057400024FE002420E0DB6A5B001DD53948394681
:105750000BF01BFE384B1B7833B10DF10702012112
:105760002846FFF75BFE0EE0344B1B782BB10DF1A2
:1057700007010120FFF72CFF05E0314B1B889BB28E
:1057800013B1FFF7C9FE04469DF80730C3B902AA5A
:1057900005F1200728686968134603C30835BD4230
:1057A0001A46F7D1099B9EB3C3F3080222B96FEAE8
:1057B00053236FEA4323099302A92046FFF78EFD86
:1057C0000AB0BDE8F0810DF107020021C8E70DF134
:1057D00007010020CEE71249124B1A48C91AC9081E
:1057E000890141F00101AAE70E4A0D4B16481749FD
:1057F0009B1ADB0817F4F87F4FEA831318BF0146A2
:1058000043F001031248A4F110020BF0DFFD98E70A
:1058100023F4FF7323F00103CDE700BF00ED00E0A8
:105820008088020030880200B6BD0200E1BD02009F
:10583000F8BD020019BE020028ED00E029ED00E0ED
:105840002AED00E038BE020083BE02006EBE0200F8
:105850009CBE0200024A536943F010035361704733
:1058600000ED00E0044B9968586A884203D0034970
:105870004FF080520A6070479840002004ED00E02D
:10588000044800232021C2180133302B82F8001372
:10589000F9D1704700E100E038B504464FF020032D
:1058A000EFF3118583F31188BFF36F8F09F088FB45
:1058B0000A4B9B68A3420BD1094B5A68C2F30802FA
:1058C00012B92846FFF702FC5A6842F080525A602B
:1058D0002846BDE8384011F04DBD00BF984000207B
:1058E00000ED00E01FB5084B0193084B0293084BF5
:1058F000039301AB0093074A074B0121684600F070
:10590000C3F805B05DF804FB0000002000000000B3
:1059100000000B0600000020000004201FB5036EED
:10592000203B0193064B2022CDE90223012101AB4C
:105930006846009300F0B2F805B05DF804FB00BFC4
:1059400000000B15DFF8BCC0F8B506460F46104640
:105950000021B9421BDA56F821E0DEF80440002CA1
:1059600046D0ABB1651E2C4205D11F2C03D9DEF801
:10597000002015420CD01F4A1F4B2048D21AD208D3
:10598000920142F001020BF00DFD6FF01500F8BD21
:10599000202CC5B2DEF80020DEF8080016D9B4F1DC
:1059A000004F15D8013CB4FA84F4C4F11F0464001C
:1059B000072D44EA00040DD90E4A0F4B1048D21AA5
:1059C000D208920142F001022946DCE70824EFE701
:1059D0003E24EDE722F01F022A4342F0100244F079
:1059E0000104CCF80850681CCCF80C20CCF810400E
:1059F0000131AEE77088020030880200B3BE0200B9
:105A0000D6BE020090ED00E0034B05225A60BFF3C2
:105A10004F8FBFF36F8F704790ED00E0BFF35F8F44
:105A2000014B00225A60704790ED00E0134908686E
:105A3000082810B51ED8FFF7F1FF114C4968002265
:105A4000904201F10C0105D10E4B1870FFF7DCFFFD
:105A5000002010BDA26051F80C3C23F01F0313433B
:105A600043F01003E36051F8043C43F00103236169
:105A70000132E5E74FF0FF30EBE700BF108C02008A
:105A800090ED00E02766002010B5034C012322783A
:105A9000FFF758FF207010BD2766002008B5084AA0
:105AA00000231278FFF74EFF10F1160F03D0054BBD
:105AB0000022072800DD08BD98601A610130F8E770
:105AC0002766002090ED00E0014B1860704700BF92
:105AD00004050020F8B5084F06460D460024AC42E8
